{
  "contractName": "Evault",
  "abi": [
    {
      "anonymous": false,
      "inputs": [
        {
          "indexed": true,
          "internalType": "uint256",
          "name": "_documentId",
          "type": "uint256"
        }
      ],
      "name": "documentCreated",
      "type": "event"
    },
    {
      "inputs": [],
      "name": "documentCount",
      "outputs": [
        {
          "internalType": "uint256",
          "name": "",
          "type": "uint256"
        }
      ],
      "stateMutability": "view",
      "type": "function",
      "constant": true
    },
    {
      "inputs": [
        {
          "internalType": "uint256",
          "name": "",
          "type": "uint256"
        }
      ],
      "name": "documentList",
      "outputs": [
        {
          "internalType": "string",
          "name": "document_name",
          "type": "string"
        },
        {
          "internalType": "string",
          "name": "document_type",
          "type": "string"
        },
        {
          "internalType": "string",
          "name": "description",
          "type": "string"
        },
        {
          "internalType": "string",
          "name": "document_belongs_to",
          "type": "string"
        },
        {
          "internalType": "string",
          "name": "doc_address",
          "type": "string"
        },
        {
          "internalType": "string",
          "name": "phone",
          "type": "string"
        },
        {
          "internalType": "string",
          "name": "criminal_record",
          "type": "string"
        },
        {
          "internalType": "string",
          "name": "uid",
          "type": "string"
        },
        {
          "internalType": "string",
          "name": "update_date",
          "type": "string"
        },
        {
          "internalType": "string",
          "name": "filename",
          "type": "string"
        }
      ],
      "stateMutability": "view",
      "type": "function",
      "constant": true
    },
    {
      "inputs": [
        {
          "internalType": "string",
          "name": "name",
          "type": "string"
        },
        {
          "internalType": "string",
          "name": "doc_type",
          "type": "string"
        },
        {
          "internalType": "string",
          "name": "desc",
          "type": "string"
        },
        {
          "internalType": "string",
          "name": "belongs",
          "type": "string"
        },
        {
          "internalType": "string",
          "name": "doc_address",
          "type": "string"
        },
        {
          "internalType": "string",
          "name": "phone",
          "type": "string"
        },
        {
          "internalType": "string",
          "name": "criminal_record",
          "type": "string"
        },
        {
          "internalType": "string",
          "name": "uid",
          "type": "string"
        },
        {
          "internalType": "string",
          "name": "update_date",
          "type": "string"
        },
        {
          "internalType": "string",
          "name": "filename",
          "type": "string"
        }
      ],
      "name": "saveDocument",
      "outputs": [],
      "stateMutability": "nonpayable",
      "type": "function"
    },
    {
      "inputs": [],
      "name": "getDocumentCount",
      "outputs": [
        {
          "internalType": "uint256",
          "name": "",
          "type": "uint256"
        }
      ],
      "stateMutability": "view",
      "type": "function",
      "constant": true
    },
    {
      "inputs": [
        {
          "internalType": "uint256",
          "name": "i",
          "type": "uint256"
        }
      ],
      "name": "getName",
      "outputs": [
        {
          "internalType": "string",
          "name": "",
          "type": "string"
        }
      ],
      "stateMutability": "view",
      "type": "function",
      "constant": true
    },
    {
      "inputs": [
        {
          "internalType": "uint256",
          "name": "i",
          "type": "uint256"
        }
      ],
      "name": "getType",
      "outputs": [
        {
          "internalType": "string",
          "name": "",
          "type": "string"
        }
      ],
      "stateMutability": "view",
      "type": "function",
      "constant": true
    },
    {
      "inputs": [
        {
          "internalType": "uint256",
          "name": "i",
          "type": "uint256"
        }
      ],
      "name": "getDesc",
      "outputs": [
        {
          "internalType": "string",
          "name": "",
          "type": "string"
        }
      ],
      "stateMutability": "view",
      "type": "function",
      "constant": true
    },
    {
      "inputs": [
        {
          "internalType": "uint256",
          "name": "i",
          "type": "uint256"
        }
      ],
      "name": "getBelongs",
      "outputs": [
        {
          "internalType": "string",
          "name": "",
          "type": "string"
        }
      ],
      "stateMutability": "view",
      "type": "function",
      "constant": true
    },
    {
      "inputs": [
        {
          "internalType": "uint256",
          "name": "i",
          "type": "uint256"
        }
      ],
      "name": "getAddress",
      "outputs": [
        {
          "internalType": "string",
          "name": "",
          "type": "string"
        }
      ],
      "stateMutability": "view",
      "type": "function",
      "constant": true
    },
    {
      "inputs": [
        {
          "internalType": "uint256",
          "name": "i",
          "type": "uint256"
        }
      ],
      "name": "getPhone",
      "outputs": [
        {
          "internalType": "string",
          "name": "",
          "type": "string"
        }
      ],
      "stateMutability": "view",
      "type": "function",
      "constant": true
    },
    {
      "inputs": [
        {
          "internalType": "uint256",
          "name": "i",
          "type": "uint256"
        }
      ],
      "name": "getCriminalRecord",
      "outputs": [
        {
          "internalType": "string",
          "name": "",
          "type": "string"
        }
      ],
      "stateMutability": "view",
      "type": "function",
      "constant": true
    },
    {
      "inputs": [
        {
          "internalType": "uint256",
          "name": "i",
          "type": "uint256"
        }
      ],
      "name": "getUid",
      "outputs": [
        {
          "internalType": "string",
          "name": "",
          "type": "string"
        }
      ],
      "stateMutability": "view",
      "type": "function",
      "constant": true
    },
    {
      "inputs": [
        {
          "internalType": "uint256",
          "name": "i",
          "type": "uint256"
        }
      ],
      "name": "getDate",
      "outputs": [
        {
          "internalType": "string",
          "name": "",
          "type": "string"
        }
      ],
      "stateMutability": "view",
      "type": "function",
      "constant": true
    },
    {
      "inputs": [
        {
          "internalType": "uint256",
          "name": "i",
          "type": "uint256"
        }
      ],
      "name": "getFile",
      "outputs": [
        {
          "internalType": "string",
          "name": "",
          "type": "string"
        }
      ],
      "stateMutability": "view",
      "type": "function",
      "constant": true
    }
  ],
  "bytecode": "0x60806040526000805534801561001457600080fd5b50614d00806100246000396000f3fe608060405234801561001057600080fd5b50600436106100ea5760003560e01c80636b8ff5741161008c578063a5b16b2e11610066578063a5b16b2e146102c6578063a81b7432146102e4578063b93f9b0a14610300578063eb03b57814610330576100ea565b80636b8ff574146102365780638bf29b48146102665780639837835114610296576100ea565b80632e7d44b5116100c85780632e7d44b51461017f5780633140c27d146101af5780633d1c2273146101e85780634036ab7814610206576100ea565b80632b57298b146100ef5780632bfda3131461011f5780632cca4ba71461014f575b600080fd5b610109600480360381019061010491906146d1565b610360565b6040516101169190614797565b60405180910390f35b610139600480360381019061013491906146d1565b610947565b6040516101469190614797565b60405180910390f35b610169600480360381019061016491906146d1565b610f2e565b6040516101769190614797565b60405180910390f35b610199600480360381019061019491906146d1565b611514565b6040516101a69190614797565b60405180910390f35b6101c960048036038101906101c491906146d1565b611afa565b6040516101df9a999897969594939291906147b9565b60405180910390f35b6101f061209e565b6040516101fd91906148aa565b60405180910390f35b610220600480360381019061021b91906146d1565b6120a7565b60405161022d9190614797565b60405180910390f35b610250600480360381019061024b91906146d1565b61268d565b60405161025d9190614797565b60405180910390f35b610280600480360381019061027b91906146d1565b612c73565b60405161028d9190614797565b60405180910390f35b6102b060048036038101906102ab91906146d1565b613259565b6040516102bd9190614797565b60405180910390f35b6102ce61383f565b6040516102db91906148aa565b60405180910390f35b6102fe60048036038101906102f991906149fa565b613845565b005b61031a600480360381019061031591906146d1565b613a18565b6040516103279190614797565b60405180910390f35b61034a600480360381019061034591906146d1565b613ffe565b6040516103579190614797565b60405180910390f35b60606000600160008481526020019081526020016000206040518061014001604052908160008201805461039390614c20565b80601f01602080910402602001604051908101604052809291908181526020018280546103bf90614c20565b801561040c5780601f106103e15761010080835404028352916020019161040c565b820191906000526020600020905b8154815290600101906020018083116103ef57829003601f168201915b5050505050815260200160018201805461042590614c20565b80601f016020809104026020016040519081016040528092919081815260200182805461045190614c20565b801561049e5780601f106104735761010080835404028352916020019161049e565b820191906000526020600020905b81548152906001019060200180831161048157829003601f168201915b505050505081526020016002820180546104b790614c20565b80601f01602080910402602001604051908101604052809291908181526020018280546104e390614c20565b80156105305780601f1061050557610100808354040283529160200191610530565b820191906000526020600020905b81548152906001019060200180831161051357829003601f168201915b5050505050815260200160038201805461054990614c20565b80601f016020809104026020016040519081016040528092919081815260200182805461057590614c20565b80156105c25780601f10610597576101008083540402835291602001916105c2565b820191906000526020600020905b8154815290600101906020018083116105a557829003601f168201915b505050505081526020016004820180546105db90614c20565b80601f016020809104026020016040519081016040528092919081815260200182805461060790614c20565b80156106545780601f1061062957610100808354040283529160200191610654565b820191906000526020600020905b81548152906001019060200180831161063757829003601f168201915b5050505050815260200160058201805461066d90614c20565b80601f016020809104026020016040519081016040528092919081815260200182805461069990614c20565b80156106e65780601f106106bb576101008083540402835291602001916106e6565b820191906000526020600020905b8154815290600101906020018083116106c957829003601f168201915b505050505081526020016006820180546106ff90614c20565b80601f016020809104026020016040519081016040528092919081815260200182805461072b90614c20565b80156107785780601f1061074d57610100808354040283529160200191610778565b820191906000526020600020905b81548152906001019060200180831161075b57829003601f168201915b5050505050815260200160078201805461079190614c20565b80601f01602080910402602001604051908101604052809291908181526020018280546107bd90614c20565b801561080a5780601f106107df5761010080835404028352916020019161080a565b820191906000526020600020905b8154815290600101906020018083116107ed57829003601f168201915b5050505050815260200160088201805461082390614c20565b80601f016020809104026020016040519081016040528092919081815260200182805461084f90614c20565b801561089c5780601f106108715761010080835404028352916020019161089c565b820191906000526020600020905b81548152906001019060200180831161087f57829003601f168201915b505050505081526020016009820180546108b590614c20565b80601f01602080910402602001604051908101604052809291908181526020018280546108e190614c20565b801561092e5780601f106109035761010080835404028352916020019161092e565b820191906000526020600020905b81548152906001019060200180831161091157829003601f168201915b5050505050815250509050806101000151915050919050565b60606000600160008481526020019081526020016000206040518061014001604052908160008201805461097a90614c20565b80601f01602080910402602001604051908101604052809291908181526020018280546109a690614c20565b80156109f35780601f106109c8576101008083540402835291602001916109f3565b820191906000526020600020905b8154815290600101906020018083116109d657829003601f168201915b50505050508152602001600182018054610a0c90614c20565b80601f0160208091040260200160405190810160405280929190818152602001828054610a3890614c20565b8015610a855780601f10610a5a57610100808354040283529160200191610a85565b820191906000526020600020905b815481529060010190602001808311610a6857829003601f168201915b50505050508152602001600282018054610a9e90614c20565b80601f0160208091040260200160405190810160405280929190818152602001828054610aca90614c20565b8015610b175780601f10610aec57610100808354040283529160200191610b17565b820191906000526020600020905b815481529060010190602001808311610afa57829003601f168201915b50505050508152602001600382018054610b3090614c20565b80601f0160208091040260200160405190810160405280929190818152602001828054610b5c90614c20565b8015610ba95780601f10610b7e57610100808354040283529160200191610ba9565b820191906000526020600020905b815481529060010190602001808311610b8c57829003601f168201915b50505050508152602001600482018054610bc290614c20565b80601f0160208091040260200160405190810160405280929190818152602001828054610bee90614c20565b8015610c3b5780601f10610c1057610100808354040283529160200191610c3b565b820191906000526020600020905b815481529060010190602001808311610c1e57829003601f168201915b50505050508152602001600582018054610c5490614c20565b80601f0160208091040260200160405190810160405280929190818152602001828054610c8090614c20565b8015610ccd5780601f10610ca257610100808354040283529160200191610ccd565b820191906000526020600020905b815481529060010190602001808311610cb057829003601f168201915b50505050508152602001600682018054610ce690614c20565b80601f0160208091040260200160405190810160405280929190818152602001828054610d1290614c20565b8015610d5f5780601f10610d3457610100808354040283529160200191610d5f565b820191906000526020600020905b815481529060010190602001808311610d4257829003601f168201915b50505050508152602001600782018054610d7890614c20565b80601f0160208091040260200160405190810160405280929190818152602001828054610da490614c20565b8015610df15780601f10610dc657610100808354040283529160200191610df1565b820191906000526020600020905b815481529060010190602001808311610dd457829003601f168201915b50505050508152602001600882018054610e0a90614c20565b80601f0160208091040260200160405190810160405280929190818152602001828054610e3690614c20565b8015610e835780601f10610e5857610100808354040283529160200191610e83565b820191906000526020600020905b815481529060010190602001808311610e6657829003601f168201915b50505050508152602001600982018054610e9c90614c20565b80601f0160208091040260200160405190810160405280929190818152602001828054610ec890614c20565b8015610f155780601f10610eea57610100808354040283529160200191610f15565b820191906000526020600020905b815481529060010190602001808311610ef857829003601f168201915b5050505050815250509050806101200151915050919050565b606060006001600084815260200190815260200160002060405180610140016040529081600082018054610f6190614c20565b80601f0160208091040260200160405190810160405280929190818152602001828054610f8d90614c20565b8015610fda5780601f10610faf57610100808354040283529160200191610fda565b820191906000526020600020905b815481529060010190602001808311610fbd57829003601f168201915b50505050508152602001600182018054610ff390614c20565b80601f016020809104026020016040519081016040528092919081815260200182805461101f90614c20565b801561106c5780601f106110415761010080835404028352916020019161106c565b820191906000526020600020905b81548152906001019060200180831161104f57829003601f168201915b5050505050815260200160028201805461108590614c20565b80601f01602080910402602001604051908101604052809291908181526020018280546110b190614c20565b80156110fe5780601f106110d3576101008083540402835291602001916110fe565b820191906000526020600020905b8154815290600101906020018083116110e157829003601f168201915b5050505050815260200160038201805461111790614c20565b80601f016020809104026020016040519081016040528092919081815260200182805461114390614c20565b80156111905780601f1061116557610100808354040283529160200191611190565b820191906000526020600020905b81548152906001019060200180831161117357829003601f168201915b505050505081526020016004820180546111a990614c20565b80601f01602080910402602001604051908101604052809291908181526020018280546111d590614c20565b80156112225780601f106111f757610100808354040283529160200191611222565b820191906000526020600020905b81548152906001019060200180831161120557829003601f168201915b5050505050815260200160058201805461123b90614c20565b80601f016020809104026020016040519081016040528092919081815260200182805461126790614c20565b80156112b45780601f10611289576101008083540402835291602001916112b4565b820191906000526020600020905b81548152906001019060200180831161129757829003601f168201915b505050505081526020016006820180546112cd90614c20565b80601f01602080910402602001604051908101604052809291908181526020018280546112f990614c20565b80156113465780601f1061131b57610100808354040283529160200191611346565b820191906000526020600020905b81548152906001019060200180831161132957829003601f168201915b5050505050815260200160078201805461135f90614c20565b80601f016020809104026020016040519081016040528092919081815260200182805461138b90614c20565b80156113d85780601f106113ad576101008083540402835291602001916113d8565b820191906000526020600020905b8154815290600101906020018083116113bb57829003601f168201915b505050505081526020016008820180546113f190614c20565b80601f016020809104026020016040519081016040528092919081815260200182805461141d90614c20565b801561146a5780601f1061143f5761010080835404028352916020019161146a565b820191906000526020600020905b81548152906001019060200180831161144d57829003601f168201915b5050505050815260200160098201805461148390614c20565b80601f01602080910402602001604051908101604052809291908181526020018280546114af90614c20565b80156114fc5780601f106114d1576101008083540402835291602001916114fc565b820191906000526020600020905b8154815290600101906020018083116114df57829003601f168201915b50505050508152505090508060400151915050919050565b60606000600160008481526020019081526020016000206040518061014001604052908160008201805461154790614c20565b80601f016020809104026020016040519081016040528092919081815260200182805461157390614c20565b80156115c05780601f10611595576101008083540402835291602001916115c0565b820191906000526020600020905b8154815290600101906020018083116115a357829003601f168201915b505050505081526020016001820180546115d990614c20565b80601f016020809104026020016040519081016040528092919081815260200182805461160590614c20565b80156116525780601f1061162757610100808354040283529160200191611652565b820191906000526020600020905b81548152906001019060200180831161163557829003601f168201915b5050505050815260200160028201805461166b90614c20565b80601f016020809104026020016040519081016040528092919081815260200182805461169790614c20565b80156116e45780601f106116b9576101008083540402835291602001916116e4565b820191906000526020600020905b8154815290600101906020018083116116c757829003601f168201915b505050505081526020016003820180546116fd90614c20565b80601f016020809104026020016040519081016040528092919081815260200182805461172990614c20565b80156117765780601f1061174b57610100808354040283529160200191611776565b820191906000526020600020905b81548152906001019060200180831161175957829003601f168201915b5050505050815260200160048201805461178f90614c20565b80601f01602080910402602001604051908101604052809291908181526020018280546117bb90614c20565b80156118085780601f106117dd57610100808354040283529160200191611808565b820191906000526020600020905b8154815290600101906020018083116117eb57829003601f168201915b5050505050815260200160058201805461182190614c20565b80601f016020809104026020016040519081016040528092919081815260200182805461184d90614c20565b801561189a5780601f1061186f5761010080835404028352916020019161189a565b820191906000526020600020905b81548152906001019060200180831161187d57829003601f168201915b505050505081526020016006820180546118b390614c20565b80601f01602080910402602001604051908101604052809291908181526020018280546118df90614c20565b801561192c5780601f106119015761010080835404028352916020019161192c565b820191906000526020600020905b81548152906001019060200180831161190f57829003601f168201915b5050505050815260200160078201805461194590614c20565b80601f016020809104026020016040519081016040528092919081815260200182805461197190614c20565b80156119be5780601f10611993576101008083540402835291602001916119be565b820191906000526020600020905b8154815290600101906020018083116119a157829003601f168201915b505050505081526020016008820180546119d790614c20565b80601f0160208091040260200160405190810160405280929190818152602001828054611a0390614c20565b8015611a505780601f10611a2557610100808354040283529160200191611a50565b820191906000526020600020905b815481529060010190602001808311611a3357829003601f168201915b50505050508152602001600982018054611a6990614c20565b80601f0160208091040260200160405190810160405280929190818152602001828054611a9590614c20565b8015611ae25780601f10611ab757610100808354040283529160200191611ae2565b820191906000526020600020905b815481529060010190602001808311611ac557829003601f168201915b50505050508152505090508060a00151915050919050565b6001602052806000526040600020600091509050806000018054611b1d90614c20565b80601f0160208091040260200160405190810160405280929190818152602001828054611b4990614c20565b8015611b965780601f10611b6b57610100808354040283529160200191611b96565b820191906000526020600020905b815481529060010190602001808311611b7957829003601f168201915b505050505090806001018054611bab90614c20565b80601f0160208091040260200160405190810160405280929190818152602001828054611bd790614c20565b8015611c245780601f10611bf957610100808354040283529160200191611c24565b820191906000526020600020905b815481529060010190602001808311611c0757829003601f168201915b505050505090806002018054611c3990614c20565b80601f0160208091040260200160405190810160405280929190818152602001828054611c6590614c20565b8015611cb25780601f10611c8757610100808354040283529160200191611cb2565b820191906000526020600020905b815481529060010190602001808311611c9557829003601f168201915b505050505090806003018054611cc790614c20565b80601f0160208091040260200160405190810160405280929190818152602001828054611cf390614c20565b8015611d405780601f10611d1557610100808354040283529160200191611d40565b820191906000526020600020905b815481529060010190602001808311611d2357829003601f168201915b505050505090806004018054611d5590614c20565b80601f0160208091040260200160405190810160405280929190818152602001828054611d8190614c20565b8015611dce5780601f10611da357610100808354040283529160200191611dce565b820191906000526020600020905b815481529060010190602001808311611db157829003601f168201915b505050505090806005018054611de390614c20565b80601f0160208091040260200160405190810160405280929190818152602001828054611e0f90614c20565b8015611e5c5780601f10611e3157610100808354040283529160200191611e5c565b820191906000526020600020905b815481529060010190602001808311611e3f57829003601f168201915b505050505090806006018054611e7190614c20565b80601f0160208091040260200160405190810160405280929190818152602001828054611e9d90614c20565b8015611eea5780601f10611ebf57610100808354040283529160200191611eea565b820191906000526020600020905b815481529060010190602001808311611ecd57829003601f168201915b505050505090806007018054611eff90614c20565b80601f0160208091040260200160405190810160405280929190818152602001828054611f2b90614c20565b8015611f785780601f10611f4d57610100808354040283529160200191611f78565b820191906000526020600020905b815481529060010190602001808311611f5b57829003601f168201915b505050505090806008018054611f8d90614c20565b80601f0160208091040260200160405190810160405280929190818152602001828054611fb990614c20565b80156120065780601f10611fdb57610100808354040283529160200191612006565b820191906000526020600020905b815481529060010190602001808311611fe957829003601f168201915b50505050509080600901805461201b90614c20565b80601f016020809104026020016040519081016040528092919081815260200182805461204790614c20565b80156120945780601f1061206957610100808354040283529160200191612094565b820191906000526020600020905b81548152906001019060200180831161207757829003601f168201915b505050505090508a565b60008054905090565b6060600060016000848152602001908152602001600020604051806101400160405290816000820180546120da90614c20565b80601f016020809104026020016040519081016040528092919081815260200182805461210690614c20565b80156121535780601f1061212857610100808354040283529160200191612153565b820191906000526020600020905b81548152906001019060200180831161213657829003601f168201915b5050505050815260200160018201805461216c90614c20565b80601f016020809104026020016040519081016040528092919081815260200182805461219890614c20565b80156121e55780601f106121ba576101008083540402835291602001916121e5565b820191906000526020600020905b8154815290600101906020018083116121c857829003601f168201915b505050505081526020016002820180546121fe90614c20565b80601f016020809104026020016040519081016040528092919081815260200182805461222a90614c20565b80156122775780601f1061224c57610100808354040283529160200191612277565b820191906000526020600020905b81548152906001019060200180831161225a57829003601f168201915b5050505050815260200160038201805461229090614c20565b80601f01602080910402602001604051908101604052809291908181526020018280546122bc90614c20565b80156123095780601f106122de57610100808354040283529160200191612309565b820191906000526020600020905b8154815290600101906020018083116122ec57829003601f168201915b5050505050815260200160048201805461232290614c20565b80601f016020809104026020016040519081016040528092919081815260200182805461234e90614c20565b801561239b5780601f106123705761010080835404028352916020019161239b565b820191906000526020600020905b81548152906001019060200180831161237e57829003601f168201915b505050505081526020016005820180546123b490614c20565b80601f01602080910402602001604051908101604052809291908181526020018280546123e090614c20565b801561242d5780601f106124025761010080835404028352916020019161242d565b820191906000526020600020905b81548152906001019060200180831161241057829003601f168201915b5050505050815260200160068201805461244690614c20565b80601f016020809104026020016040519081016040528092919081815260200182805461247290614c20565b80156124bf5780601f10612494576101008083540402835291602001916124bf565b820191906000526020600020905b8154815290600101906020018083116124a257829003601f168201915b505050505081526020016007820180546124d890614c20565b80601f016020809104026020016040519081016040528092919081815260200182805461250490614c20565b80156125515780601f1061252657610100808354040283529160200191612551565b820191906000526020600020905b81548152906001019060200180831161253457829003601f168201915b5050505050815260200160088201805461256a90614c20565b80601f016020809104026020016040519081016040528092919081815260200182805461259690614c20565b80156125e35780601f106125b8576101008083540402835291602001916125e3565b820191906000526020600020905b8154815290600101906020018083116125c657829003601f168201915b505050505081526020016009820180546125fc90614c20565b80601f016020809104026020016040519081016040528092919081815260200182805461262890614c20565b80156126755780601f1061264a57610100808354040283529160200191612675565b820191906000526020600020905b81548152906001019060200180831161265857829003601f168201915b50505050508152505090508060200151915050919050565b6060600060016000848152602001908152602001600020604051806101400160405290816000820180546126c090614c20565b80601f01602080910402602001604051908101604052809291908181526020018280546126ec90614c20565b80156127395780601f1061270e57610100808354040283529160200191612739565b820191906000526020600020905b81548152906001019060200180831161271c57829003601f168201915b5050505050815260200160018201805461275290614c20565b80601f016020809104026020016040519081016040528092919081815260200182805461277e90614c20565b80156127cb5780601f106127a0576101008083540402835291602001916127cb565b820191906000526020600020905b8154815290600101906020018083116127ae57829003601f168201915b505050505081526020016002820180546127e490614c20565b80601f016020809104026020016040519081016040528092919081815260200182805461281090614c20565b801561285d5780601f106128325761010080835404028352916020019161285d565b820191906000526020600020905b81548152906001019060200180831161284057829003601f168201915b5050505050815260200160038201805461287690614c20565b80601f01602080910402602001604051908101604052809291908181526020018280546128a290614c20565b80156128ef5780601f106128c4576101008083540402835291602001916128ef565b820191906000526020600020905b8154815290600101906020018083116128d257829003601f168201915b5050505050815260200160048201805461290890614c20565b80601f016020809104026020016040519081016040528092919081815260200182805461293490614c20565b80156129815780601f1061295657610100808354040283529160200191612981565b820191906000526020600020905b81548152906001019060200180831161296457829003601f168201915b5050505050815260200160058201805461299a90614c20565b80601f01602080910402602001604051908101604052809291908181526020018280546129c690614c20565b8015612a135780601f106129e857610100808354040283529160200191612a13565b820191906000526020600020905b8154815290600101906020018083116129f657829003601f168201915b50505050508152602001600682018054612a2c90614c20565b80601f0160208091040260200160405190810160405280929190818152602001828054612a5890614c20565b8015612aa55780601f10612a7a57610100808354040283529160200191612aa5565b820191906000526020600020905b815481529060010190602001808311612a8857829003601f168201915b50505050508152602001600782018054612abe90614c20565b80601f0160208091040260200160405190810160405280929190818152602001828054612aea90614c20565b8015612b375780601f10612b0c57610100808354040283529160200191612b37565b820191906000526020600020905b815481529060010190602001808311612b1a57829003601f168201915b50505050508152602001600882018054612b5090614c20565b80601f0160208091040260200160405190810160405280929190818152602001828054612b7c90614c20565b8015612bc95780601f10612b9e57610100808354040283529160200191612bc9565b820191906000526020600020905b815481529060010190602001808311612bac57829003601f168201915b50505050508152602001600982018054612be290614c20565b80601f0160208091040260200160405190810160405280929190818152602001828054612c0e90614c20565b8015612c5b5780601f10612c3057610100808354040283529160200191612c5b565b820191906000526020600020905b815481529060010190602001808311612c3e57829003601f168201915b50505050508152505090508060000151915050919050565b606060006001600084815260200190815260200160002060405180610140016040529081600082018054612ca690614c20565b80601f0160208091040260200160405190810160405280929190818152602001828054612cd290614c20565b8015612d1f5780601f10612cf457610100808354040283529160200191612d1f565b820191906000526020600020905b815481529060010190602001808311612d0257829003601f168201915b50505050508152602001600182018054612d3890614c20565b80601f0160208091040260200160405190810160405280929190818152602001828054612d6490614c20565b8015612db15780601f10612d8657610100808354040283529160200191612db1565b820191906000526020600020905b815481529060010190602001808311612d9457829003601f168201915b50505050508152602001600282018054612dca90614c20565b80601f0160208091040260200160405190810160405280929190818152602001828054612df690614c20565b8015612e435780601f10612e1857610100808354040283529160200191612e43565b820191906000526020600020905b815481529060010190602001808311612e2657829003601f168201915b50505050508152602001600382018054612e5c90614c20565b80601f0160208091040260200160405190810160405280929190818152602001828054612e8890614c20565b8015612ed55780601f10612eaa57610100808354040283529160200191612ed5565b820191906000526020600020905b815481529060010190602001808311612eb857829003601f168201915b50505050508152602001600482018054612eee90614c20565b80601f0160208091040260200160405190810160405280929190818152602001828054612f1a90614c20565b8015612f675780601f10612f3c57610100808354040283529160200191612f67565b820191906000526020600020905b815481529060010190602001808311612f4a57829003601f168201915b50505050508152602001600582018054612f8090614c20565b80601f0160208091040260200160405190810160405280929190818152602001828054612fac90614c20565b8015612ff95780601f10612fce57610100808354040283529160200191612ff9565b820191906000526020600020905b815481529060010190602001808311612fdc57829003601f168201915b5050505050815260200160068201805461301290614c20565b80601f016020809104026020016040519081016040528092919081815260200182805461303e90614c20565b801561308b5780601f106130605761010080835404028352916020019161308b565b820191906000526020600020905b81548152906001019060200180831161306e57829003601f168201915b505050505081526020016007820180546130a490614c20565b80601f01602080910402602001604051908101604052809291908181526020018280546130d090614c20565b801561311d5780601f106130f25761010080835404028352916020019161311d565b820191906000526020600020905b81548152906001019060200180831161310057829003601f168201915b5050505050815260200160088201805461313690614c20565b80601f016020809104026020016040519081016040528092919081815260200182805461316290614c20565b80156131af5780601f10613184576101008083540402835291602001916131af565b820191906000526020600020905b81548152906001019060200180831161319257829003601f168201915b505050505081526020016009820180546131c890614c20565b80601f01602080910402602001604051908101604052809291908181526020018280546131f490614c20565b80156132415780601f1061321657610100808354040283529160200191613241565b820191906000526020600020905b81548152906001019060200180831161322457829003601f168201915b50505050508152505090508060600151915050919050565b60606000600160008481526020019081526020016000206040518061014001604052908160008201805461328c90614c20565b80601f01602080910402602001604051908101604052809291908181526020018280546132b890614c20565b80156133055780601f106132da57610100808354040283529160200191613305565b820191906000526020600020905b8154815290600101906020018083116132e857829003601f168201915b5050505050815260200160018201805461331e90614c20565b80601f016020809104026020016040519081016040528092919081815260200182805461334a90614c20565b80156133975780601f1061336c57610100808354040283529160200191613397565b820191906000526020600020905b81548152906001019060200180831161337a57829003601f168201915b505050505081526020016002820180546133b090614c20565b80601f01602080910402602001604051908101604052809291908181526020018280546133dc90614c20565b80156134295780601f106133fe57610100808354040283529160200191613429565b820191906000526020600020905b81548152906001019060200180831161340c57829003601f168201915b5050505050815260200160038201805461344290614c20565b80601f016020809104026020016040519081016040528092919081815260200182805461346e90614c20565b80156134bb5780601f10613490576101008083540402835291602001916134bb565b820191906000526020600020905b81548152906001019060200180831161349e57829003601f168201915b505050505081526020016004820180546134d490614c20565b80601f016020809104026020016040519081016040528092919081815260200182805461350090614c20565b801561354d5780601f106135225761010080835404028352916020019161354d565b820191906000526020600020905b81548152906001019060200180831161353057829003601f168201915b5050505050815260200160058201805461356690614c20565b80601f016020809104026020016040519081016040528092919081815260200182805461359290614c20565b80156135df5780601f106135b4576101008083540402835291602001916135df565b820191906000526020600020905b8154815290600101906020018083116135c257829003601f168201915b505050505081526020016006820180546135f890614c20565b80601f016020809104026020016040519081016040528092919081815260200182805461362490614c20565b80156136715780601f1061364657610100808354040283529160200191613671565b820191906000526020600020905b81548152906001019060200180831161365457829003601f168201915b5050505050815260200160078201805461368a90614c20565b80601f01602080910402602001604051908101604052809291908181526020018280546136b690614c20565b80156137035780601f106136d857610100808354040283529160200191613703565b820191906000526020600020905b8154815290600101906020018083116136e657829003601f168201915b5050505050815260200160088201805461371c90614c20565b80601f016020809104026020016040519081016040528092919081815260200182805461374890614c20565b80156137955780601f1061376a57610100808354040283529160200191613795565b820191906000526020600020905b81548152906001019060200180831161377857829003601f168201915b505050505081526020016009820180546137ae90614c20565b80601f01602080910402602001604051908101604052809291908181526020018280546137da90614c20565b80156138275780601f106137fc57610100808354040283529160200191613827565b820191906000526020600020905b81548152906001019060200180831161380a57829003601f168201915b50505050508152505090508060c00151915050919050565b60005481565b6040518061014001604052808b81526020018a815260200189815260200188815260200187815260200186815260200185815260200184815260200183815260200182815250600160008054815260200190815260200160002060008201518160000190805190602001906138bb9291906145e4565b5060208201518160010190805190602001906138d89291906145e4565b5060408201518160020190805190602001906138f59291906145e4565b5060608201518160030190805190602001906139129291906145e4565b50608082015181600401908051906020019061392f9291906145e4565b5060a082015181600501908051906020019061394c9291906145e4565b5060c08201518160060190805190602001906139699291906145e4565b5060e08201518160070190805190602001906139869291906145e4565b506101008201518160080190805190602001906139a49291906145e4565b506101208201518160090190805190602001906139c29291906145e4565b509050506000547fca20fa89ecd777ef578bdadcd46514bb88e4aea978712d699cef73597408e7bc60405160405180910390a2600080815480929190613a0790614c81565b919050555050505050505050505050565b606060006001600084815260200190815260200160002060405180610140016040529081600082018054613a4b90614c20565b80601f0160208091040260200160405190810160405280929190818152602001828054613a7790614c20565b8015613ac45780601f10613a9957610100808354040283529160200191613ac4565b820191906000526020600020905b815481529060010190602001808311613aa757829003601f168201915b50505050508152602001600182018054613add90614c20565b80601f0160208091040260200160405190810160405280929190818152602001828054613b0990614c20565b8015613b565780601f10613b2b57610100808354040283529160200191613b56565b820191906000526020600020905b815481529060010190602001808311613b3957829003601f168201915b50505050508152602001600282018054613b6f90614c20565b80601f0160208091040260200160405190810160405280929190818152602001828054613b9b90614c20565b8015613be85780601f10613bbd57610100808354040283529160200191613be8565b820191906000526020600020905b815481529060010190602001808311613bcb57829003601f168201915b50505050508152602001600382018054613c0190614c20565b80601f0160208091040260200160405190810160405280929190818152602001828054613c2d90614c20565b8015613c7a5780601f10613c4f57610100808354040283529160200191613c7a565b820191906000526020600020905b815481529060010190602001808311613c5d57829003601f168201915b50505050508152602001600482018054613c9390614c20565b80601f0160208091040260200160405190810160405280929190818152602001828054613cbf90614c20565b8015613d0c5780601f10613ce157610100808354040283529160200191613d0c565b820191906000526020600020905b815481529060010190602001808311613cef57829003601f168201915b50505050508152602001600582018054613d2590614c20565b80601f0160208091040260200160405190810160405280929190818152602001828054613d5190614c20565b8015613d9e5780601f10613d7357610100808354040283529160200191613d9e565b820191906000526020600020905b815481529060010190602001808311613d8157829003601f168201915b50505050508152602001600682018054613db790614c20565b80601f0160208091040260200160405190810160405280929190818152602001828054613de390614c20565b8015613e305780601f10613e0557610100808354040283529160200191613e30565b820191906000526020600020905b815481529060010190602001808311613e1357829003601f168201915b50505050508152602001600782018054613e4990614c20565b80601f0160208091040260200160405190810160405280929190818152602001828054613e7590614c20565b8015613ec25780601f10613e9757610100808354040283529160200191613ec2565b820191906000526020600020905b815481529060010190602001808311613ea557829003601f168201915b50505050508152602001600882018054613edb90614c20565b80601f0160208091040260200160405190810160405280929190818152602001828054613f0790614c20565b8015613f545780601f10613f2957610100808354040283529160200191613f54565b820191906000526020600020905b815481529060010190602001808311613f3757829003601f168201915b50505050508152602001600982018054613f6d90614c20565b80601f0160208091040260200160405190810160405280929190818152602001828054613f9990614c20565b8015613fe65780601f10613fbb57610100808354040283529160200191613fe6565b820191906000526020600020905b815481529060010190602001808311613fc957829003601f168201915b50505050508152505090508060800151915050919050565b60606000600160008481526020019081526020016000206040518061014001604052908160008201805461403190614c20565b80601f016020809104026020016040519081016040528092919081815260200182805461405d90614c20565b80156140aa5780601f1061407f576101008083540402835291602001916140aa565b820191906000526020600020905b81548152906001019060200180831161408d57829003601f168201915b505050505081526020016001820180546140c390614c20565b80601f01602080910402602001604051908101604052809291908181526020018280546140ef90614c20565b801561413c5780601f106141115761010080835404028352916020019161413c565b820191906000526020600020905b81548152906001019060200180831161411f57829003601f168201915b5050505050815260200160028201805461415590614c20565b80601f016020809104026020016040519081016040528092919081815260200182805461418190614c20565b80156141ce5780601f106141a3576101008083540402835291602001916141ce565b820191906000526020600020905b8154815290600101906020018083116141b157829003601f168201915b505050505081526020016003820180546141e790614c20565b80601f016020809104026020016040519081016040528092919081815260200182805461421390614c20565b80156142605780601f1061423557610100808354040283529160200191614260565b820191906000526020600020905b81548152906001019060200180831161424357829003601f168201915b5050505050815260200160048201805461427990614c20565b80601f01602080910402602001604051908101604052809291908181526020018280546142a590614c20565b80156142f25780601f106142c7576101008083540402835291602001916142f2565b820191906000526020600020905b8154815290600101906020018083116142d557829003601f168201915b5050505050815260200160058201805461430b90614c20565b80601f016020809104026020016040519081016040528092919081815260200182805461433790614c20565b80156143845780601f1061435957610100808354040283529160200191614384565b820191906000526020600020905b81548152906001019060200180831161436757829003601f168201915b5050505050815260200160068201805461439d90614c20565b80601f01602080910402602001604051908101604052809291908181526020018280546143c990614c20565b80156144165780601f106143eb57610100808354040283529160200191614416565b820191906000526020600020905b8154815290600101906020018083116143f957829003601f168201915b5050505050815260200160078201805461442f90614c20565b80601f016020809104026020016040519081016040528092919081815260200182805461445b90614c20565b80156144a85780601f1061447d576101008083540402835291602001916144a8565b820191906000526020600020905b81548152906001019060200180831161448b57829003601f168201915b505050505081526020016008820180546144c190614c20565b80601f01602080910402602001604051908101604052809291908181526020018280546144ed90614c20565b801561453a5780601f1061450f5761010080835404028352916020019161453a565b820191906000526020600020905b81548152906001019060200180831161451d57829003601f168201915b5050505050815260200160098201805461455390614c20565b80601f016020809104026020016040519081016040528092919081815260200182805461457f90614c20565b80156145cc5780601f106145a1576101008083540402835291602001916145cc565b820191906000526020600020905b8154815290600101906020018083116145af57829003601f168201915b50505050508152505090508060e00151915050919050565b8280546145f090614c20565b90600052602060002090601f0160209004810192826146125760008555614659565b82601f1061462b57805160ff1916838001178555614659565b82800160010185558215614659579182015b8281111561465857825182559160200191906001019061463d565b5b509050614666919061466a565b5090565b5b8082111561468357600081600090555060010161466b565b5090565b6000604051905090565b600080fd5b600080fd5b6000819050919050565b6146ae8161469b565b81146146b957600080fd5b50565b6000813590506146cb816146a5565b92915050565b6000602082840312156146e7576146e6614691565b5b60006146f5848285016146bc565b91505092915050565b600081519050919050565b600082825260208201905092915050565b60005b8381101561473857808201518184015260208101905061471d565b83811115614747576000848401525b50505050565b6000601f19601f8301169050919050565b6000614769826146fe565b6147738185614709565b935061478381856020860161471a565b61478c8161474d565b840191505092915050565b600060208201905081810360008301526147b1818461475e565b905092915050565b60006101408201905081810360008301526147d4818d61475e565b905081810360208301526147e8818c61475e565b905081810360408301526147fc818b61475e565b90508181036060830152614810818a61475e565b90508181036080830152614824818961475e565b905081810360a0830152614838818861475e565b905081810360c083015261484c818761475e565b905081810360e0830152614860818661475e565b9050818103610100830152614875818561475e565b905081810361012083015261488a818461475e565b90509b9a5050505050505050505050565b6148a48161469b565b82525050565b60006020820190506148bf600083018461489b565b92915050565b600080fd5b600080fd5b7f4e487b7100000000000000000000000000000000000000000000000000000000600052604160045260246000fd5b6149078261474d565b810181811067ffffffffffffffff82111715614926576149256148cf565b5b80604052505050565b6000614939614687565b905061494582826148fe565b919050565b600067ffffffffffffffff821115614965576149646148cf565b5b61496e8261474d565b9050602081019050919050565b82818337600083830152505050565b600061499d6149988461494a565b61492f565b9050828152602081018484840111156149b9576149b86148ca565b5b6149c484828561497b565b509392505050565b600082601f8301126149e1576149e06148c5565b5b81356149f184826020860161498a565b91505092915050565b6000806000806000806000806000806101408b8d031215614a1e57614a1d614691565b5b60008b013567ffffffffffffffff811115614a3c57614a3b614696565b5b614a488d828e016149cc565b9a505060208b013567ffffffffffffffff811115614a6957614a68614696565b5b614a758d828e016149cc565b99505060408b013567ffffffffffffffff811115614a9657614a95614696565b5b614aa28d828e016149cc565b98505060608b013567ffffffffffffffff811115614ac357614ac2614696565b5b614acf8d828e016149cc565b97505060808b013567ffffffffffffffff811115614af057614aef614696565b5b614afc8d828e016149cc565b96505060a08b013567ffffffffffffffff811115614b1d57614b1c614696565b5b614b298d828e016149cc565b95505060c08b013567ffffffffffffffff811115614b4a57614b49614696565b5b614b568d828e016149cc565b94505060e08b013567ffffffffffffffff811115614b7757614b76614696565b5b614b838d828e016149cc565b9350506101008b013567ffffffffffffffff811115614ba557614ba4614696565b5b614bb18d828e016149cc565b9250506101208b013567ffffffffffffffff811115614bd357614bd2614696565b5b614bdf8d828e016149cc565b9150509295989b9194979a5092959850565b7f4e487b7100000000000000000000000000000000000000000000000000000000600052602260045260246000fd5b60006002820490506001821680614c3857607f821691505b60208210811415614c4c57614c4b614bf1565b5b50919050565b7f4e487b7100000000000000000000000000000000000000000000000000000000600052601160045260246000fd5b6000614c8c8261469b565b91507fffffffffffffffffffffffffffffffffffffffffffffffffffffffffffffffff821415614cbf57614cbe614c52565b5b60018201905091905056fea26469706673582212204ea82d5aaa32e49b5f595989f356c957be381eb06131c977f6de4a92495ed55e64736f6c634300080b0033",
  "immutableReferences": {},
  "source": "pragma solidity >= 0.8.11 <= 0.8.11;\r\npragma experimental ABIEncoderV2;\r\n//evault solidity code\r\ncontract Evault {\r\n\r\n    uint public documentCount = 0; \r\n    mapping(uint => document) public documentList; \r\n     struct document\r\n     {\r\n       string document_name;\r\n       string document_type;\r\n       string description;\r\n       string document_belongs_to;\r\n       string doc_address;\r\n       string phone;\r\n       string criminal_record;\r\n       string uid;\r\n       string update_date;\r\n       string filename;\r\n     }\r\n \r\n   // events \r\n   event documentCreated(uint indexed _documentId);\r\n\r\n   \r\n   //function  to save legal document details to Blockchain\r\n   function saveDocument(string memory name, string memory doc_type, string memory desc, string memory belongs, string memory doc_address, string memory phone, string memory criminal_record,  string memory uid,  string memory update_date, string memory filename) public {\r\n      documentList[documentCount] = document(name, doc_type, desc, belongs, doc_address, phone, criminal_record, uid, update_date, filename);\r\n      emit documentCreated(documentCount);\r\n      documentCount++;\r\n    }\r\n\r\n     //get document count\r\n    function getDocumentCount()  public view returns (uint) {\r\n          return  documentCount;\r\n    }\r\n\r\n    function getName(uint i) public view returns (string memory) {\r\n        document memory doc = documentList[i];\r\n\treturn doc.document_name;\r\n    }\r\n\r\n    function getType(uint i) public view returns (string memory) {\r\n        document memory doc = documentList[i];\r\n\treturn doc.document_type;\r\n    }\r\n\r\n    function getDesc(uint i) public view returns (string memory) {\r\n        document memory doc = documentList[i];\r\n\treturn doc.description;\r\n    }\r\n\r\n    function getBelongs(uint i) public view returns (string memory) {\r\n        document memory doc = documentList[i];\r\n\treturn doc.document_belongs_to;\r\n    }\r\n\r\n    function getAddress(uint i) public view returns (string memory) {\r\n        document memory doc = documentList[i];\r\n\treturn doc.doc_address;\r\n    }\r\n\r\n    function getPhone(uint i) public view returns (string memory) {\r\n        document memory doc = documentList[i];\r\n\treturn doc.phone;\r\n    }\r\n\r\n    function getCriminalRecord(uint i) public view returns (string memory) {\r\n        document memory doc = documentList[i];\r\n\treturn doc.criminal_record;\r\n    }\r\n\r\n    function getUid(uint i) public view returns (string memory) {\r\n        document memory doc = documentList[i];\r\n\treturn doc.uid;\r\n    }\r\n\r\n    function getDate(uint i) public view returns (string memory) {\r\n        document memory doc = documentList[i];\r\n\treturn doc.update_date;\r\n    }\r\n\r\n    function getFile(uint i) public view returns (string memory) {\r\n        document memory doc = documentList[i];\r\n\treturn doc.filename;\r\n    }\r\n}",
  "sourcePath": "C:\\Users\\Admin\\Desktop\\Blockchain\\hello-eth\\node_modules\\.bin\\contracts\\Evault.sol",
  "compiler": {
    "name": "solc",
    "version": "0.8.11+commit.d7f03943.Emscripten.clang"
  },
  "schemaVersion": "3.4.4",
  "updatedAt": "2024-02-08T06:58:10.766Z",
  "networkType": "ethereum",
  "devdoc": {
    "kind": "dev",
    "methods": {},
    "version": 1
  },
  "userdoc": {
    "kind": "user",
    "methods": {},
    "version": 1
  }
}